:020000040800F2
:10000000000003200D220008592200085922000890
:100010005922000859220008592200080000000057
:10002000000000000000000000000000151700089C
:100030005922000800000000D917000831180008F4
:1000400059220008592200085922000859220008A4
:100050005922000859220008592200085922000894
:10006000C5210008E921000859220008592200088A
:100070005922000859220008592200085922000874
:100080005922000859220008592200085922000864
:10009000592200085922000859220008812100082D
:1000A0005922000859220008592200085922000844
:1000B0002D1A000859220008592200085922000868
:1000C0005922000859220008592200085922000824
:1000D00059220008611E0008592200085922000810
:1000E0005922000859220008592200085922000804
:1000F00059220008592200085922000859220008F4
:1001000059220008592200085922000859220008E3
:1001100059220008592200085922000859220008D3
:1001200059220008592200085922000859220008C3
:1001300059220008592200085922000859220008B3
:1001400059220008592200085922000859220008A3
:100150005922000859220008592200085922000893
:100160005922000859220008592200085922000883
:100170005922000859220008592200085922000873
:100180005922000859220008592200085922000863
:100190005922000859220008592200085922000853
:0C01A0009D1E000859220008592200088A
:1001B000B0BB020800000020AC090020AC09002000
:1001C0009C670120844641EA000313F003036DD1CC
:1001D000403A41D351F8043B40F8043B51F8043B0A
:1001E00040F8043B51F8043B40F8043B51F8043B11
:1001F00040F8043B51F8043B40F8043B51F8043B01
:1002000040F8043B51F8043B40F8043B51F8043BF0
:1002100040F8043B51F8043B40F8043B51F8043BE0
:1002200040F8043B51F8043B40F8043B51F8043BD0
:1002300040F8043B51F8043B40F8043B51F8043BC0
:1002400040F8043B51F8043B40F8043B51F8043BB0
:1002500040F8043B403ABDD2303211D351F8043B50
:1002600040F8043B51F8043B40F8043B51F8043B90
:1002700040F8043B51F8043B40F8043B103AEDD2FF
:100280000C3205D351F8043B40F8043B043AF9D250
:10029000043208D0D2071CBF11F8013B00F8013B23
:1002A00001D30B8803806046704700BF082A13D330
:1002B0008B078DD010F003038AD0C3F10403D21A48
:1002C000DB071CBF11F8013B00F8013B80D331F87C
:1002D000023B20F8023B7BE7043AD9D3013A11F8FC
:1002E000013B00F8013BF9D20B7803704B78437067
:1002F0008B7883706046704740EA010C1CF0070F52
:1003000023D1BDF1100DCDE90245CDE900676FF0B5
:1003100000064FF0000700BFF0E80223F1E80245B5
:10032000A24282FA46FCA7FA86FC08BFBCF1000F85
:1003300040F0D780AB4283FA46FCA7FA86FC08BFA0
:10034000BCF1000F40F0CA80E6E710F0030C21D0AA
:1003500020F0030050F8042B5FEACC7C08D00FD2C9
:1003600011F801CB5FFA92F3B3EB0C0C10D17BB117
:1003700011F801CB5FFAA2F3B3EB0C0C08D13BB13F
:1003800011F801CB5FFAB2F3B3EB0C0C00D10BB94F
:1003900060467047BDF1100DCDE90245CDE900671B
:1003A0006FF000064FF0000711F0030C2DD110F094
:1003B000040F0DD050F8042B51F8044BA24282FADE
:1003C00046FCA7FA86FC08BFBCF1000F40F089800C
:1003D00011F0040F9FD051F8045B00BFF0E8022336
:1003E000AA4282FA46FCA7FA86FC08BFBCF1000FBD
:1003F00071D1F1E80245A34283FA46FCA7FA86FCD4
:1004000008BFBCF1000F63D1E8E721F00301BCF1A4
:10041000020F1ED03BDA51F8045B00BF50F8043BDA
:100420004FEA152583FA46FCA7FA86FCB7EB0C2F9A
:1004300003EA162208BFAA424DD151F8045BBCF171
:10044000000F82EA03034FEA056208BF93423CD1E2
:10045000E4E751F8045B00BF50F8043B4FEA154550
:1004600083FA46FCA7FA86FCB7EB0C4F03EA164268
:1004700008BFAA422FD151F8045BBCF1000F82EAF9
:1004800003034FEA054208BF93421ED1E4E751F847
:10049000045B00BF50F8043B4FEA156583FA46FC45
:1004A000A7FA86FCB7EB0C6F03EA166208BFAA42F4
:1004B00011D151F8045BBCF1000F82EA03034FEA4B
:1004C000052208BF934200D1E4E719BA12BA0AE044
:1004D00019BA22BA07E011BA2ABA04E019BA2ABA3C
:1004E00001E011BA22BA9CFA8CF0DDE90067DDE97F
:1004F00002451DF1100D38B1B0FA80F0C0F11800BE
:1005000021FA00F122FA00F20120914298BF8041C5
:10051000704700BF81F0004102E000BF83F000435C
:1005200030B54FEA41044FEA430594EA050F08BF8E
:1005300090EA020F1FBF54EA000C55EA020C7FEA52
:10054000645C7FEA655C00F0E2804FEA5454D4EBCF
:100550005555B8BF6D420CDD2C4480EA020281EA99
:10056000030382EA000083EA010180EA020281EAD1
:100570000303362D88BF30BD11F0004F4FEA013123
:100580004FF4801C4CEA113102D0404261EB410132
:1005900013F0004F4FEA03334CEA133302D05242B8
:1005A00063EB430394EA050F00F0A780A4F1010474
:1005B000D5F1200E0DDB02FA0EFC22FA05F28018AE
:1005C00041F1000103FA0EF2801843FA05F3594194
:1005D0000EE0A5F120050EF1200E012A03FA0EFC13
:1005E00028BF4CF0020C43FA05F3C01851EBE3713D
:1005F00001F0004507D54FF0000EDCF1000C7EEB5A
:1006000000006EEB0101B1F5801F1BD3B1F5001F97
:100610000CD349085FEA30004FEA3C0C04F10104B6
:100620004FEA445212F5800F80F09A80BCF1004FDF
:1006300008BF5FEA500C50F1000041EB045141EA61
:10064000050130BD5FEA4C0C404141EB010111F462
:10065000801FA4F10104E9D191F0000F04BF01460D
:100660000020B1FA81F308BF2033A3F10B03B3F1EB
:1006700020020CDA0C3208DD02F1140CC2F10C027B
:1006800001FA0CF021FA02F10CE002F11402D8BFD9
:10069000C2F1200C01FA02F120FA0CFCDCBF41EAA5
:1006A0000C019040E41AA2BF01EB0451294330BD74
:1006B0006FEA04041F3C1CDA0C340EDC04F1140451
:1006C000C4F1200220FA04F001FA02F340EA030028
:1006D00021FA04F345EA030130BDC4F10C04C4F16E
:1006E000200220FA02F001FA04F340EA030029464E
:1006F00030BD21FA04F0294630BD94F0000F83F498
:10070000801306BF81F480110134013D4EE77FEA7A
:10071000645C18BF7FEA655C29D094EA050F08BFC6
:1007200090EA020F05D054EA000C04BF19461046A7
:1007300030BD91EA030F1EBF0021002030BD5FEAEB
:10074000545C05D14000494128BF41F0004130BD13
:1007500014F580043CBF01F5801130BD01F0004567
:1007600045F0FE4141F470014FF0000030BD7FEADA
:10077000645C1ABF194610467FEA655C1CBF0B46D5
:10078000024650EA013406BF52EA033591EA030FEC
:1007900041F4002130BD00BF90F0000F04BF0021E4
:1007A000704730B54FF4806404F132044FF0000517
:1007B0004FF0000150E700BF90F0000F04BF002190
:1007C000704730B54FF4806404F1320410F00045F6
:1007D00048BF40424FF000013EE700BF42004FEAF1
:1007E000E2014FEA31014FEA02701FBF12F07F436E
:1007F00093F07F4F81F06051704792F0000F14BF6B
:1008000093F07F4F704730B54FF4607401F00045AE
:1008100021F0004120E700BF50EA010208BF704705
:1008200030B54FF000050AE050EA010208BF7047FA
:1008300030B511F0004502D5404261EB41014FF463
:10084000806404F132045FEA915C3FF4DCAE4FF067
:1008500003025FEADC0C18BF03325FEADC0C18BF4E
:10086000033202EBDC02C2F1200300FA03FC20FA9F
:1008700002F001FA03FE40EA0E0021FA02F11444EC
:10088000C1E600BF70B54FF0FF0C4CF4E06C1CEA01
:1008900011541DBF1CEA135594EA0C0F95EA0C0F76
:1008A00000F0DEF82C4481EA030621EA4C5123EAE9
:1008B0004C5350EA013518BF52EA033541F4801118
:1008C00043F4801338D0A0FB02CE4FF00005E1FBCB
:1008D00002E506F00042E0FB03E54FF00006E1FB15
:1008E00003569CF0000F18BF4EF0010EA4F1FF0458
:1008F000B6F5007F64F5407404D25FEA4E0E6D4198
:1009000046EB060642EAC62141EA55514FEAC520A8
:1009100040EA5E504FEACE2EB4F1FD0C88BFBCF524
:10092000E06F1ED8BEF1004F08BF5FEA500E50F1D5
:10093000000041EB045170BD06F0004646EA01019B
:1009400040EA020081EA0301B4EB5C04C2BFD4EBCD
:100950000C0541EA045170BD41F480114FF0000EC6
:10096000013C00F3AB8014F1360FDEBF002001F034
:10097000004170BDC4F10004203C35DA0C341BDCAE
:1009800004F11404C4F1200500FA05F320FA04F080
:1009900001FA05F240EA020001F0004221F00041B4
:1009A00010EBD37021FA04F642EB06015EEA430E27
:1009B00008BF20EAD37070BDC4F10C04C4F1200557
:1009C00000FA04F320FA05F001FA04F240EA02000A
:1009D00001F0004110EBD37041F100015EEA430EDB
:1009E00008BF20EAD37070BDC4F1200500FA05F2FB
:1009F0004EEA020E20FA04F301FA05F243EA02037A
:100A000021FA04F001F0004121FA04F220EA020088
:100A100000EBD3705EEA430E08BF20EAD37070BDCE
:100A200094F0000F0FD101F00046400041EB0101AE
:100A300011F4801F08BF013CF7D041EA060195F090
:100A4000000F18BF704703F00046520043EB03034A
:100A500013F4801F08BF013DF7D043EA0603704737
:100A600094EA0C0F0CEA135518BF95EA0C0F0CD042
:100A700050EA410618BF52EA4306D1D181EA030188
:100A800001F000414FF0000070BD50EA410606BF82
:100A90001046194652EA430619D094EA0C0F02D1C7
:100AA00050EA013613D195EA0C0F05D152EA03360C
:100AB0001CBF104619460AD181EA030101F000412A
:100AC00041F0FE4141F470014FF0000070BD41F073
:100AD000FE4141F4780170BD70B54FF0FF0C4CF44D
:100AE000E06C1CEA11541DBF1CEA135594EA0C0F6C
:100AF00095EA0C0F00F0A7F8A4EB050481EA030EB9
:100B000052EA03354FEA013100F088804FEA03339F
:100B10004FF0805545EA131343EA12634FEA02226D
:100B200045EA111545EA10654FEA00260EF000412E
:100B30009D4208BF964244F1FD0404F5407402D280
:100B40005B084FEA3202B61A65EB03055B084FEA11
:100B500032024FF480104FF4002CB6EB020E75EB0E
:100B6000030E22BFB61A754640EA0C005B084FEA36
:100B70003202B6EB020E75EB030E22BFB61A7546B3
:100B800040EA5C005B084FEA3202B6EB020E75EBFE
:100B9000030E22BFB61A754640EA9C005B084FEA76
:100BA0003202B6EB020E75EB030E22BFB61A754683
:100BB00040EADC0055EA060E18D04FEA051545EA72
:100BC00016754FEA06164FEAC30343EA52734FEA1B
:100BD000C2025FEA1C1CC0D111F4801F0BD141EA94
:100BE00000014FF000004FF0004CB6E711F4801FF9
:100BF00004BF01430020B4F1FD0C88BFBCF5E06FD9
:100C00003FF6AFAEB5EB030C04BFB6EB020C5FEAE8
:100C1000500C50F1000041EB045170BD0EF0004E3D
:100C20004EEA113114EB5C04C2BFD4EB0C0541EA6F
:100C3000045170BD41F480114FF0000E013C90E66C
:100C400045EA060E8DE60CEA135594EA0C0F08BF30
:100C500095EA0C0F3FF43BAF94EA0C0F0AD150EA2F
:100C600001347FF434AF95EA0C0F7FF425AF1046C2
:100C700019462CE795EA0C0F06D152EA03353FF4EA
:100C8000FDAE1046194622E750EA410618BF52EA67
:100C900043067FF4C5AE50EA41047FF40DAF52EA3B
:100CA00043057FF4EBAE12E74FF0FF3C06E000BFD8
:100CB0004FF0010C02E000BF4FF0010C4DF804CDE5
:100CC0004FEA410C7FEA6C5C4FEA430C18BF7FEAA5
:100CD0006C5C1BD001B050EA410C0CBF52EA430CD3
:100CE00091EA030F02BF90EA020F0020704710F153
:100CF000000F91EA030F58BF994208BF90422CBFE2
:100D0000D8176FEAE37040F0010070474FEA410CDA
:100D10007FEA6C5C02D150EA013C07D14FEA430CF8
:100D20007FEA6C5CD6D152EA033CD3D05DF8040B69
:100D3000704700BF8446104662468C46194663469B
:100D400000E000BF01B5FFF7B7FF002848BF10F172
:100D5000000F01BD4DF808EDFFF7F4FF0CBF0120B7
:100D600000205DF808FB00BF4DF808EDFFF7EAFF33
:100D700034BF012000205DF808FB00BF4DF808EDEE
:100D8000FFF7E0FF94BF012000205DF808FB00BFE3
:100D90004DF808EDFFF7CEFF94BF012000205DF86D
:100DA00008FB00BF4DF808EDFFF7C4FF34BF01207A
:100DB00000205DF808FB00BF4FEA410212F5001267
:100DC00015D211D56FF47873B3EB625212D94FEA92
:100DD000C12343F0004343EA505311F0004F23FA7C
:100DE00002F018BF404270474FF00000704750EAD1
:100DF000013005D111F0004008BF6FF0004070478E
:100E00004FF00000704700BF4FEA4102B2F1E043EB
:100E100024BFB3F5001CDCF1FE5C0DD901F0004CE1
:100E20004FEAC0024CEA5070B2F1004F40EB830031
:100E300008BF20F00100704711F0804F21D113F15D
:100E40003872BCBF01F00040704741F480114FEA96
:100E50005252C2F11802C2F1200C10FA0CF320FA1F
:100E600002F018BF40F001004FEAC1234FEAD3233C
:100E700003FA0CFC40EA0C0023FA02F34FEA4303A6
:100E8000CCE77FEA625307D150EA01331EBF4FF02F
:100E9000FE4040F44000704701F0004040F0FE404A
:100EA00040F40000704700BF4BB942B9002908BFA9
:100EB000002802D04FF0FF31084600F03BB882B066
:100EC000EC462DE9005000F01DF8DDF804E002B01A
:100ED0000CBC70472DE97043069E14461D468046A3
:100EE000894600F029F804FB01F300FB0533A4FB5D
:100EF00000451D44B8EB040469EB0505C6E900454F
:100F0000BDE870832DE97043069E144680468946ED
:100F10001D4600F05DF900FB05F504FB0153A0FB45
:100F200004451D44B8EB040469EB0505C6E900451A
:100F3000BDE87083704700BF00292DE9F00FC0F2B3
:100F40009F800024002BC0F29680154606460F466F
:100F5000002B3ED18A4257D9B2FA82F34BB1C3F18A
:100F6000200201FA03F720FA02F29D40174300FA2B
:100F700003F6290CB7FBF1F2330C01FB127CA8B28B
:100F800043EA0C4700FB02F3BB4209D97F1902F187
:100F9000FF3C80F00181BB4240F2FE80023A2F44C8
:100FA000FF1AB7FBF1F3B6B201FB137146EA014138
:100FB00000FB03F0884208D9491903F1FF3780F09C
:100FC000ED80884240F2EA80023B43EA024200237D
:100FD00003E08B420AD900231A461046194614B181
:100FE000404261EB4101BDE8F00F7047B3FA83F86E
:100FF000B8F1000F40F084808B4202D3824200F2AD
:10100000DE8000230122E8E712B90123B3FBF2F5E9
:10101000B5FA85F2002A39D17F1B280C1FFA85FC0E
:101020000123B7FBF0F1320C00FB117742EA0747CE
:101030000CFB01F2BA4207D97F1901F1FF3802D245
:10104000BA4200F2C1804146BF1AB7FBF0F2B6B215
:1010500000FB127046EA00400CFB02FC844507D9F5
:10106000401902F1FF3702D2844500F2AB803A46C4
:1010700042EA0142B1E7E443524263EB430364E7CF
:10108000404261EB41014FF0FF345BE79540C2F114
:10109000200327FA03F1280C26FA03F39740B1FB4B
:1010A000F0F81F433B0C00FB18111FFA85FC43EAC4
:1010B00001410CFB08F38B4206FA02F608D94919E4
:1010C00008F1FF3279D28B4277D9A8F1020829447E
:1010D000C91AB1FBF0F3BFB200FB131147EA014795
:1010E0000CFB03F2BA4207D97F1903F1FF3160D23A
:1010F000BA425ED9023B2F44BF1A43EA084390E745
:10110000C8F1200203FA08FC25FA02F343EA0C0CAA
:101110004FEA1C4921FA02F301FA08F720FA02F219
:10112000B3FBF9F1174309FB11333A0C1FFA8CFB9F
:1011300042EA03430BFB01FA9A4505FA08F008D985
:1011400013EB0C0301F1FF3235D29A4533D9023942
:101150006344CAEB0303B3FBF9F209FB1233BFB2DA
:1011600047EA03470BFB02F9B94508D917EB0C070F
:1011700002F1FF331BD2B94519D9023A674442EA5A
:101180000145A5FB0001C9EB07078F424FF00003A3
:101190000AD305D02A4620E7624601E73B4614E71A
:1011A00006FA08F68642F5D26A1E002315E71A46AB
:1011B000E5E70B46A0E71146CBE7904688E74346B4
:1011C00042460AE7023A53E702392F443CE700BFA0
:1011D0002DE9F00F144605460E46002B43D18A42F6
:1011E00053D9B2FA82F757B1C7F1200620FA06F6B2
:1011F00001FA07F302FA07F41E4300FA07F5210C7F
:10120000B6FBF1F22B0C01FB1267A0B243EA0746D2
:1012100000FB02F3B34209D9361902F1FF3780F01F
:10122000F680B34240F2F380023A2644F61AB6FB47
:10123000F1F3ADB201FB136145EA014100FB03F09C
:10124000884208D9091903F1FF3680F0E28088420C
:1012500040F2DF80023B43EA024200231046194677
:10126000BDE8F00F70478B424AD8B3FA83F6002EE0
:101270004DD18B4202D3824200F2D680002301225C
:1012800010461946BDE8F00F704712B90124B4FBAF
:10129000F2F4B4FA84F2002A7CD1091B260CA7B21E
:1012A0000123B1FBF6F02A0C06FB101142EA0141C2
:1012B00007FB00F28A4207D9091900F1FF3C02D26C
:1012C0008A4200F2C3806046891AB1FBF6F2ADB2E1
:1012D00006FB121145EA014507FB02F7AF4208D9A8
:1012E0002C1902F1FF3180F09680A74240F29380E2
:1012F000023A42EA004210461946BDE8F00F704734
:1013000000231A4610461946BDE8F00F7047C6F193
:10131000200522FA05F4B3401C434FEA144821FA91
:1013200005F301FA06F720FA05F5B3FBF8FC2F43A5
:1013300008FB1C333D0C1FFA84FA45EA03430AFB01
:101340000CF9994502FA06FB04D91B190CF1FF327E
:101350006DD39446C9EB0303B3FBF8F508FB1533D3
:10136000BFB247EA03470AFB05F8B84504D93F195D
:1013700005F1FF3361D31D4645EA0C4CACFB0B2352
:10138000C8EB07079F424FF0000549D345D062469E
:101390002B4663E79440C2F1200321FA03FC260C9C
:1013A00020FA03F301FA02F5BCFBF6F843EA050163
:1013B0000B0C06FB18CCA7B243EA0C4C07FB08F356
:1013C000634500FA02F509D91CEB040C08F1FF3261
:1013D0003AD2634538D9A8F10208A444C3EB0C0CF7
:1013E000BCFBF6F389B206FB13CC41EA0C4107FBC8
:1013F00003F28A4207D9091903F1FF3022D28A4247
:1014000020D9023B2144891A43EA084349E73A4676
:101410000CE733461FE70A466BE7B0409042B6D26E
:101420000CF1FF32002319E73346324616E799459F
:101430008FD9ACF1020C23448CE7B8459BD9023D0F
:10144000274499E70346DEE79046C7E70238214480
:101450003AE700BF70B50025C5600561044612F08B
:10146000B5FD0FF03DF9124801210BF00FFE0121EF
:1014700010480BF00BFE01200BF08AFD01200BF051
:1014800045FD28460FF09CF9FF200FF0D5F96422A6
:1014900032234FF4A076F0255A200321E271237203
:1014A000A08026806580A1714FF0FF3070BD00BF25
:1014B00084680140046901408288B42A70B51ED056
:1014C000B2F5877F15D05A2A0CD0858CC48C808EBB
:1014D0000FF0A0F92846214601220023BDE8704004
:1014E0000FF02EBC848CC58CC4F59F740134A4B25B
:1014F000EDE7C58C848CC5F1EF05ADB2E7E7858CCF
:10150000C48CC5F59F750135C4F1EF04ADB2A4B22A
:10151000DDE700BF10B50446808E0FF07BF9A3888D
:10152000B42B23D0B3F5877F15D05A2B07D0A08CCE
:10153000E18C228D638DBDE8104010F03DB8238D05
:10154000A18CE08C628D1944C1F5A07189B2BDE80F
:10155000104010F031B8E08CA18C628D238DC0F169
:10156000EF0080B2BDE8104010F026B8A08CE18CEE
:10157000228D638DC0F59F700130C1F1EF0180B203
:1015800089B2BDE8104010F017B800BF10B5808ECA
:101590000FF040F900200146F0224FF4A073BDE89F
:1015A000104010F009B800BF70B50F4C82B0402059
:1015B00001210CF0B7F900250122022320464FF447
:1015C000C04669468DF804208DF8053000968DF8E8
:1015D00006508DF807500BF045FF044B044A1C6081
:1015E00015805C6002B070BD00180240AC0900209C
:1015F000B4090020012838B504460D4600D938BD8D
:1016000000F0B6F800350849084A094B51F82400A3
:1016100032F8141018BF01252A461D550BF0B4FFEF
:10162000BDE8384000F0B8B8AC090020E865020811
:10163000B4090020012838B5044600D938BD00F0AF
:1016400097F80A4B0A491D5D0A4A51F8240032F8FE
:101650001410D5F1010538BF00252A461D550BF0A1
:1016600093FFBDE8384000F097B800BFB4090020F0
:10167000AC090020E865020801289ABF014B185CFC
:1016800000207047B40900200A4B1B68013308D0C2
:101690004FF0500383F31188BFF36F8FBFF34F8F69
:1016A000FEE74FF0500383F31188BFF36F8FBFF352
:1016B0004F8FFEE70000002005480068006880F3B7
:1016C000088862B6BFF34F8FBFF36F8F00DF00BF94
:1016D00008ED00E0DFF80C00016841F470010160E2
:1016E0007047000088ED00E010B4094B40F8081C7A
:1016F0004FF080746FF0020140F8044C40F8202C49
:1017000040F80C3C40F8241C5DF8044B443870470A
:1017100089160008064B19680868B0E8F04F80F396
:101720000988BFF36F8F4FF0000080F31188704776
:1017300030380020074B1B68B3F57A7F08D04FF094
:10174000500383F31188BFF36F8FBFF34F8FFEE712
:10175000704700BF00000020044B4FF080521A6019
:10176000BFF34F8FBFF36F8F704700BF04ED00E0F2
:101770004FF0500383F31188BFF36F8FBFF34F8F88
:10178000044B1A6801321A60BFF34F8FBFF36F8F9B
:10179000704700BF00000020084A136843B94FF0AB
:1017A000500383F31188BFF36F8FBFF34F8FFEE7B2
:1017B000013B13600BB983F31188704700000020D0
:1017C000EFF311804FF0500181F311887047002032
:1017D00080F31188704700BFEFF30980BFF36F8F6C
:1017E000124B1A681EF0100F08BF20ED108A20E976
:1017F000F04F10604DF8043D4FF0500080F3118819
:1018000014F0CCFD4FF0000080F3118808BC19687B
:101810000868B0E8F04F1EF0100F08BFB0EC108A57
:1018200080F30988BFF36F8F704700BF3038002006
:1018300008B5EFF311834FF0500282F31188BFF324
:101840006F8FBFF34F8F14F0BBF918B1034B4FF0FC
:1018500080521A60002383F3118808BD04ED00E074
:10186000034A044B0449116007221A60704700BF05
:1018700014E000E010E000E03F90020010B5244BBF
:1018800024491C78244882B0E4B2FF2201941A70E3
:101890001B78DBB28DF803309DF803409DF80320E0
:1018A00004F0500407230C70110603600ED50623C4
:1018B00000E00B469DF803205200D2B28DF80320C1
:1018C0009DF80320120603F1FF31F2D4019C104968
:1018D000124A1B0203F4E063E4B203600C70136865
:1018E00043F470031360136843F070431360FFF711
:1018F000B7FF0B4B00221A60FFF7ECFE094B1A688A
:1019000042F040421A60FFF7D7FEFFF7BDFE00BF6E
:1019100000E400E0B8090020BC09002020ED00E050
:101920000000002034EF00E0EFF305830F2B0ED909
:101930001049114A5B5C12789A4208D94FF0500363
:1019400083F31188BFF36F8FBFF34F8FFEE70B4A0E
:101950000B4B12681B6802F4E0629A4208D94FF000
:10196000500383F31188BFF36F8FBFF34F8FFEE7F0
:10197000704700BFF0E300E0B80900200CED00E084
:10198000BC09002070B5012084B001460BF0EEFFC9
:10199000254E012102200BF0E9FF4FF080400CF0B2
:1019A000DDFE30460CF0DAFE01A80DF001F800254E
:1019B00042F2D00301A94FF080400293ADF80450E9
:1019C000ADF80C50ADF806500CF0A4FF4FF080407D
:1019D00001210DF029F84FF6FF7301A9304602935B
:1019E0000CF098FF304601210DF01EF801241C2355
:1019F00068468DF800308DF802508DF801508DF852
:101A000003400AF06FF8224621464FF080400DF067
:101A10005FFC21464FF080400DF02CF83046214607
:101A20000DF028F804B070BD00040040124A134BBA
:101A3000516A1A88042A30B489B219D9104A114857
:101A400013880488CB1A9BB29C4206D2A3F5035498
:101A5000103C0D4D0380A4B22C800C4B11801A68F1
:101A60004FF080400132012130BC1A600DF052BCB1
:101A7000501C1880024AF0E700040040C80900200A
:101A8000CC090020C0090020CA090020C409002098
:101A9000414A424BD2F88810414841F47001C2F8E3
:101AA00088101968002241F0010119609A601968D4
:101AB00021F0847121F4803119605860196882B076
:101AC00021F480211960DA60009201921A6842F4D0
:101AD00080321A601A4603E0009BB3F5A04F09D08C
:101AE000136803F400330193009B01330093019BBF
:101AF000002BF1D0294B1B6813F4003318BF0123CE
:101B00000193019B012B42D0244A264B116C41F0DA
:101B100080511164196841F44041196093689360E1
:101B2000936843F400439360936843F4A053936035
:101B3000136843F08073136013689B01FCD5194947
:101B40000B6843F480330B604B68164AD803FBD50F
:101B5000136843F40033136053689B03FCD5124BA6
:101B60000E4A40F205711960936823F003039360F5
:101B7000936843F002039360936803F00C03082B0F
:101B8000FAD1054B4FF000629A6002B07047034BE8
:101B9000064A5A60B8E700BF00ED00E00038024096
:101BA0001030002400700040003C0240085A4007FA
:101BB000164B9A6802F00C02042A24D0082A0AD094
:101BC000134A124B13489968134BC1F30311415C3C
:101BD000CA401A607047586859685B6842024CBF37
:101BE0000E4A0B4A01F03F01C3F38813B2FBF1F236
:101BF00002FB03F2054B5B68C3F3014301335B0057
:101C0000B2FBF3F2DDE7054ADBE700BF0038024034
:101C10000024F400040000201400002000127A00C8
:101C20002DE9F04F01208DB001460BF07BFE102016
:101C300001210BF077FE202001210BF073FE102014
:101C400001210BF09FFE4FF4807001210BF09AFEF2
:101C5000DFF800A2794EDFF80092DFF80082784FBB
:101C60004FF4007001210BF08DFE4FF480600121D4
:101C7000002401250BF086FE4FF0030B4FF4C063E8
:101C8000504602A9022202938DF80C208DF80E40D6
:101C90008DF80F508DF80DB00BF0E4FB5046092184
:101CA00007220BF07DFC504607220A210BF078FC3E
:101CB000504602A902958DF80C408DF80DB08DF8B4
:101CC0000F400BF0CFFB402202A95E4802928DF834
:101CD0000CB08DF80DB08DF80F400BF0C3FB202336
:101CE000504602A94FF0080A02930BF0BBFB0DEB24
:101CF0000A015548CDF808A00BF0B4FB04A80494E1
:101D00000594069407940CF08BFB0CF045FB3146D0
:101D10004846346034717571F460346135750CF087
:101D200049FB314640460CF045FB314638460CF045
:101D300041FB48462A46042107230CF0C3FB4046DA
:101D40002A46052107230CF0BDFB2A460723384607
:101D50000D210CF0B7FB484629460CF013FC404619
:101D600029460CF00FFC384629460CF00BFC48467F
:101D700021460CF02DFC404621460CF029FC38464B
:101D800021460CF025FC484629460CF063FB4046F2
:101D900029460CF05FFB294638460CF05BFB4846B1
:101DA0000CF0DCFB40460CF0D9FB38460CF0D6FBBF
:101DB0000C234FF4964208A92448ADF82A30089223
:101DC000ADF82C40ADF82840ADF82640ADF82440E1
:101DD0000CF02CF92A4640F225511C480CF086FAEA
:101DE0000526252301A88DF804308DF807508DF8BD
:101DF00005608DF8066009F075FE294613480CF061
:101E00009BF9582301A88DF804308DF807508DF800
:101E100005608DF8066009F065FE284629460BF03E
:101E200043FA504621460BF03FFA4FF4A2700BF0F4
:101E3000A9F8074B1C800DB0BDE8F08FD009002039
:101E4000002101400014024000080240001001403F
:101E5000E80900200000024000220140002001406B
:101E600030B50C4D83B00024284640F225518DF842
:101E700000400CF063FA50B102A90748AB8801F8A2
:101E8000083D224669462346006812F0DBFE03B097
:101E900030BD00BF00100140F809002008B5012046
:101EA0000BF01EFA00B908BD084B0021186812F0AB
:101EB00027FF074B4FF080521A60BFF34F8FBFF3DD
:101EC0006F8F0120BDE808400BF018BA540A0020BB
:101ED00004ED00E0014608B504480CF061F9034840
:101EE00040210CF021FA0028F9D008BD0010014073
:101EF00008B5FFF7CDFD4FF4407009F0E9FD15F08E
:101F000081FB00200BF010F80E48FF210BF06AF95E
:101F1000FF210D480BF066F901200BF039F8012183
:101F20000022642012F08AFC084B00211860032272
:101F3000012012F083FC064B1860BDE80840FFF753
:101F40006FBE00BF8468014004690140F8090020A9
:101F5000540A002038B50E4C258865B100200EF0DB
:101F60002FFC0C48FF210BF03DF901200BF010F87D
:101F70000023238038BD01200EF022FC29460548AD
:101F80000BF030F901200BF003F80123238038BD5A
:101F9000E809002004690140FEE700BF704700BF68
:101FA00070B5102086B001210BF0BCFC4FF48040CE
:101FB00001210BF0E7FC002501240323402602A9A0
:101FC00014488DF80D308DF80C508DF80E50029697
:101FD0008DF80F400BF046FA062104200DF03CFB73
:101FE000082304A88DF815308DF8145004968DF848
:101FF00016400DF0A7FA0523172201A88DF8074017
:102000008DF804208DF805308DF8063009F06AFD52
:1020100006B070BD0010024070B5102086B00121DE
:102020000BF080FC4FF4804001210BF0ABFC00254D
:1020300001240323202602A914488DF80D308DF8C1
:102040000C508DF80E5002968DF80F400BF00AFAE6
:10205000052104200DF000FB082304A88DF815309D
:102060008DF8145004968DF816400DF06BFA052388
:10207000172201A88DF807408DF804208DF805304F
:102080008DF8063009F02EFD06B070BD001002403C
:10209000F0B5102087B001210BF044FC4FF48040D4
:1020A00001210BF06FFC042403230026012502A963
:1020B00014488DF80D308DF80C608DF80E60029488
:1020C0008DF80F500BF0CEF9022120460DF0C4FA26
:1020D000082704A88DF8146004948DF816508DF824
:1020E00015700DF02FFA05230DEB04008DF8075045
:1020F0008DF804708DF805308DF8063009F0F2FC8B
:1021000007B0F0BD00100240F0B5082087B00121F3
:102110000BF008FC08254FF4804001210BF032FC45
:102120000026012403270DEB050114488DF80C60EF
:102130008DF80E6002958DF80F408DF80D700BF044
:1021400091F9394604200DF087FA04A88DF814603F
:1021500004958DF816408DF815500DF0F3F9052310
:10216000092201A88DF807408DF804208DF805306C
:102170008DF8063009F0B6FC07B0F0BD0010024043
:1021800008B540200DF03EFA70B920200DF03AFA63
:1021900000B908BD094B0021186812F0B1FD2020DC
:1021A000BDE808400DF038BA054B0021186812F060
:1021B000A7FD40200DF030FAE7E700BFAC0A002091
:1021C000300A002008B504200DF01CFA00B908BD43
:1021D000044B0021186812F093FD0420BDE808406C
:1021E0000DF01ABAF009002008B508200DF00AFA1F
:1021F00000B908BD044B0021186812F081FD0820C9
:10220000BDE808400DF008BAB00A0020002100F037
:1022100004B80C4B5B58435004310B480B4B42182D
:102220009A42FFF4F6AF0A4A00F003B8002342F8DE
:10223000043B084B9A42FFF4F9AFFFF729FC05F085
:102240005BF87047B0BB020800000020AC0900201A
:10225000AC0900209C670120FFF7FEBF2DE9F04F7D
:102260006948DFF8CC91DFF8CCA1A7B015F0F6F9FA
:102270000490664815F0F2F90590002014F0E0F89B
:102280000DF1340B09A8142113F0CCFD00221346E4
:10229000D9F800000AA912F087FD0128F6D05C4E9B
:1022A000DAF800004FF4806115F0C0FC0FCE059FF6
:1022B00000975C460FC4DAF8005036684FF4784354
:1022C0000193284626603C210A225B4618F012F949
:1022D000504B514E009793E80700DAF800304FF06A
:1022E0001F0C8BE80700CDF804C018461E213222CF
:1022F0005B46CDF80CC018F0FDF80FCEDAF80050B0
:10230000049F0097DE46AEE80F0056F81079069756
:102310000022019228462780322150225B463F4D01
:1023200018F0E8F8002301930FCD049F0097DE46D4
:10233000AEE80F0055F810892EF8028B4FEA1847C7
:10234000A7700797364FDAF80000322164225B4607
:1023500018F0D0F897E80F00DE46AEE807002EF838
:10236000023BDDF80CC0CDF804C0059F00974FEA92
:10237000134C8EF800C0DAF800001E218C225B4658
:1023800018F0B8F80FCE0027DAF800600197DE46A3
:10239000049F0097AEE80F003046069E268032214B
:1023A000AA225B4618F0A6F80FCD0027DAF80050F5
:1023B00001975E46049F00970FC62846079DA570AB
:1023C0003221BE225B46A4F8008018F093F815482D
:1023D00001210BF0C1F8044668B1134F00210B46F0
:1023E0004FF0FF32386812F0DFFCFFF7B3FD322008
:1023F00013F078FD46E70D4E306813F077FA20466B
:1024000014F01EF8E9E700BFEC650208FC6502085D
:102410000C660208206602082C6602084066020864
:102420005466020800000240540A0020040A0020FA
:10243000240A0020E40000202DE9F04F5E485F4DA3
:102440005F4CDFF8A891DFF8A881A3B015F006F97A
:102450000646002013F0F4FFAB465A2705A81421C6
:1024600013F0E0FC00221346206806A912F09CFC41
:102470000128F7D028684FF4806115F0D7FBD9F810
:102480000030002B3FD14F4808210BF065F8034680
:10249000002857D15A2F5ED0822F71D04A494B78ED
:1024A000FF2B02D00BB9822F67D0BAB20023286865
:1024B000009312B25A21082315F0BEFF434B009639
:1024C00093E803002B6809904FF4784A4FEA114EC5
:1024D000ADF828101846CDF804A009AB64215022AD
:1024E0008DF82AE018F006F8394B93E8070009AB9D
:1024F00003C38DE8400428681A706421782209AB70
:1025000017F0F8FF10E0334B93E8070009AB03C363
:102510004FF47841DBF8000000961A8001915022B8
:10252000642109AB17F0E6FF00210B464FF0FF32A4
:10253000D8F8000012F038FCFFF70CFD322013F041
:10254000D1FC8BE7204A5378FF2BABD15A2FACD16B
:1025500082221746AAE720490B68012B22D0022BC2
:102560001BD0032B23D0002013F06AFF164A5378A8
:10257000FF2B9AD18222174698E75A273A4695E7C9
:1025800016490868164901220A60039313F0AEF950
:10259000039B184613F054FF80E7124B186813F0A2
:1025A000A5F9E0E70D4A106813F0A0F9DBE70E4942
:1025B000086813F09BF9D6E7FC650208E4000020E8
:1025C000240A002000100240C40A002064660208A9
:1025D0006C66020878660208440A0020080A002097
:1025E000740A0020140A0020A80A0020680A0020AB
:1025F000540A0020000000002DE9F04F6448DFF885
:10260000A891DFF8A881A9B015F028F808906148D2
:1026100015F024F8002402235F49099000930191EA
:102620000294039423465D485D494FF47A7212F098
:10263000A5FF9FED557B8DED067B05940BA814211E
:1026400013F0F0FB00221346D9F800000CA912F099
:10265000ABFB0128F6D040F2FF71D8F8000015F06E
:10266000E5FA059C4F4981FB0443059CA3EBE47309
:1026700003EB4303E41A40F078810A264FF47845CF
:1026800027B2D8F800000096394600220A230195A7
:1026900016F084F90A340A23D8F800000096394667
:1026A0000195002215F0D8FAA4B240F61C439C42D2
:1026B000E6D100240A264FF4784527B2D8F8000066
:1026C00000963946E6220A23019516F067F90A3486
:1026D0000A23D8F80000009639460195E62215F045
:1026E000BBFAA4B240F61C439C42E6D100252C461E
:1026F0004FF00A0A4FF4004B17E0CDF804C0CDF8B4
:1027000010C016F04BF9DDF810C0D8F80000CDF875
:1027100000A0CDF804C0394632460A23013415F032
:102720009BFA0A35E62CADB225D02EB214F0010783
:102730004FF4784C32464FF00A03D8F80000CDF839
:1027400000A03946D9D02EB2324600210A23CDF856
:1027500004B016F023F90134D8F80000CDF800A039
:102760003246CDF804B000210A2315F075FA0A3577
:10277000E62CADB2D9D100252C460A274FF4004AE9
:1027800029E000BFAFF3008000000000000000005F
:10279000FC650208EC650208040A00204D2C0008C4
:1027A0008466020856555555240A0020E40000208E
:1027B000CDF804B016F0F2F80134D8F800008DE836
:1027C000800832464FF49B710A2315F045FA0A350A
:1027D000E62CADB226D02EB214F0010F4FF4784B98
:1027E00032464FF49B714FF00A03D8F8000000976F
:1027F000DED02EB232464FF49B710A23CDF804A0EE
:1028000016F0CCF80134D8F8000000973246CDF825
:1028100004A04FF49B710A2315F01EFA0A35E62C2A
:10282000ADB2D8D1B44C94E80F000FAC07C40899EE
:1028300000914FF478422370D8F8000001920FAB5A
:102840005022322117F056FEDDE9060122F032FD5A
:1028500006460F46DDE9060122F066FD0022044629
:102860000D46A64B30463946FEF70CF80022A44B25
:10287000FDF756FEFEF7A0FA002206B2A14B204655
:102880002946FDF74DFE00229C4B9F4DFDF7FAFFB8
:10289000FEF792FAD8F800304CF2186402B23146D2
:1028A00018460094142315F0C7FD402197480AF0FC
:1028B00053FE089A009206460FCD0FAF0FC795E85A
:1028C0000300D8F80040386000250195204607F83D
:1028D000041FB4220A210FAB17F00CFEDFF838E218
:1028E0000195BEE80F000FAC0FC49EE80300D8F8B6
:1028F0000030089A00922060C822184639800FAB39
:102900000A2117F0F7FDDFF814E20195BEE80F0089
:102910000FAD0FC59EE80300D8F80030099A009269
:102920002060A022184639800FAB962117F0E2FDF7
:10293000059CDDE906016EA3D3E90023013405946B
:10294000FDF7EEFDCDE90601002E00F08A80704A09
:1029500000210B4610684FF0FF3212F025FAFFF706
:10296000F9FA322013F0BEFA68E600252C464FF043
:102970000A0A4FF4784B18E0CDF804C0CDF810C027
:1029800016F00CF8DDF810C0D8F80000CDF800A063
:10299000CDF804C0394632460A2315F05DF90134FA
:1029A0000A35B4F59B7FADB221D02FB214F00106E9
:1029B0004FF4004C39464FF00A03D8F80000CDF828
:1029C00000A03246D8D02EB23146CDF804B0002255
:1029D0000A2315F0E3FFD8F80000CDF800A0314637
:1029E000CDF804B000220A2315F036F9D7E7002508
:1029F0002C460A274FF4784A12E0CDF804B015F0BF
:102A0000CDFFD8F800008DE880083146E6220A2381
:102A100015F022F901340A35B4F59B7FADB228D008
:102A20002EB214F0010F4FF4004B31464FF0E60286
:102A30004FF00A03D8F800000097DED02EB23146DE
:102A4000CDF804A0E6220A2315F0A8FFD8F800006C
:102A500000973146CDF804A0E6220A2315F0FCF8D1
:102A6000D8E72C49086812F041FF304613F0E8FC23
:102A70006DE700240A264FF4004527B2D8F800007D
:102A800000963A4600210A23019515F087FF0A3483
:102A90000A23D8F8000000963A460195002115F067
:102AA000DBF8A4B240F6FC039C42E6D100240A26DF
:102AB0004FF4004527B2D8F8000000963A464FF48C
:102AC0009B710A23019515F069FF0A340A23D8F88F
:102AD000000000963A4601954FF49B7115F0BCF842
:102AE000A4B240F6FC039C42E4D19BE6AFF3008025
:102AF0009A9999999999B93F9066020800005940AE
:102B0000004060400000F03FA06602080010024054
:102B1000540A0020040A0020B8660208D0660208A1
:102B20002DE9F04F474D8BB000240023286802A9FF
:102B30004FF0FF3212F038F90E2CF6D8DFE804F02F
:102B4000170E0E0E0E0E0E0E0E0E0E0E0E0E0800B0
:102B50009DF80830552B11D00024E6E70AAB23443A
:102B60009DF8082003F8102C0134E4B2DDE79DF84D
:102B70000840B4F1AA035C425C41D6E79DF819E035
:102B80009DF81A809DF825C09DF81B40CDF800C027
:102B90009DF81C209DF81DB09DF81E709DF81F002B
:102BA0009DF820309DF821909DF822609DF823101B
:102BB0009DF824A0CDF804A088EA0E0C84EA0C0C41
:102BC00082EA0C0C8BEA0C0C87EA0C0C80EA0C0CE9
:102BD00083EA0C0C89EA0C0C86EA0C0C81EA0C0CDA
:102BE0008AEA0C0CDDF800A0E245B5D14FF0000AEE
:102BF000D4466EF3070AE6466BF3070C67F30F2C17
:102C000069F3070E60F3174C63F31F6C66F30F2E26
:102C1000019BCDF810C061F3174E63F31F6E68F38C
:102C20000F2A094BCDF814E064F3174A62F31F6AC8
:102C30001868CDF80CA0002303A964221C4611F0EB
:102C400071FE72E7F8090020240A00202DE9F04FF8
:102C5000A948DFF81CB3A94CA94EADB014F0FEFC96
:102C60000B9000200546042713F0EAFBA5490097C6
:102C70002B46019102950395A349A4484FF4FA62AB
:102C800012F07CFCA24A00972B4602950395019214
:102C9000A049A1484FF4FA6212F070FC9F490097D6
:102CA0002B460295039501914FF47A729C499D48F9
:102CB00012F064FC9C4A00972B4602950395019202
:102CC0009A499B484FF47A7212F058FC0097994F3A
:102CD00002952B4603950197974998484FF47A72CD
:102CE000A946974D12F04AFC32222A60954D2A607F
:102CF000954A964D5A271760954F964A46232B6062
:102D00003B60954B502057214FF04B0ECBF8000005
:102D10001160C3F800E06FF0310813AD0CA8142166
:102D200013F080F80022134620680DA912F03CF839
:102D30000128F7D04FF61F013068884F14F076FF56
:102D4000404604F061FB97E80F002F4607C74FF09D
:102D5000000A0B99009130683B805A21CDF804A0FD
:102D600050222B4617F0C6FBDFF808E2CDF804A08E
:102D7000BEE80F002F460FC7DEF800300B9A009216
:102D800030683B705A2178222B4617F0B3FB744B06
:102D90003768CDF804A093E807000B9B009385E803
:102DA00007002B4638465A21A0226A4F17F0A2FB93
:102DB000DFF8A4E1B7F90010BEF9002030684FF445
:102DC00078471E238DE88800BE2315F0E7FD4FF0FD
:102DD000030A5B4B0197CDF800A01B6807935A4B81
:102DE000DBF800E01B680A93079BADF84030554BB9
:102DF00030681B6806930A9BADF84230534BADF820
:102E00004AE01B680993069BADF84430504B1B68A1
:102E10000593099BADF846300121059BADF848307C
:102E20000A4610AB15F068FF01210A4610AB306866
:102E3000CDF800A0019716F043FA082149480AF09E
:102E40008BFB04210346474808930AF085FB2021A9
:102E5000074644480AF080FB089B82465BB93E491E
:102E60000A684B2A00F0E58013469B2B00F0D080C7
:102E7000732B00F09C80002F00F08080BAF1000FCF
:102E800000F08780384F7B78FF2B00F08E80D3F1E5
:102E9000010338BF00235B42DFF8DCE04B448EFBCC
:102EA00003E9A9EBE37909EB4909B3EB090940F020
:102EB0008E802949244FDFF894E04B225A230A6080
:102EC0003B6046225023CEF80020CBF80030274A42
:102ED000002108F10A08B8F1DC0F0B4610684FF02A
:102EE000FF32A8BF6FF0310811F05EFFFFF732F834
:102EF000C82012F0F7FF11E7FC650208240A002041
:102F0000E4000020100A0020E86602085D220008A4
:102F1000080A0020F466020845320008B40A0020BE
:102F20000467020889660008140A00201467020872
:102F300055520008A80A00202C670208153E000818
:102F4000880A00208C0A0020180A00201C0A002091
:102F5000900A0020580A00205C0A002044670208FA
:102F60006867020800100240C40A0020540A0020CA
:102F7000200A0020546702085655555535490868FF
:102F800012F0B4FC384613F05BFABAF1000F7FF48C
:102F900079AF314A314F106812F0A8FC504613F057
:102FA0004FFA7B78FF2B7FF472AF012374E72C4A32
:102FB000DFF8C0E010680123CEF8003012F096FC74
:102FC000002013F03DFA002F7FF458AFD6E7B9F197
:102FD000010F0ED02349244FDFF89CE09B22AA2347
:102FE0000A603B609622A023CEF80020CBF8003088
:102FF0006DE71C491C4FDFF880E0732282230A60D2
:103000003B606E227823CEF80020CBF800305EE7DC
:10301000164ADFF860E010680023CEF8003008930D
:1030200012F064FC089B184613F00AFA0D490B686D
:103030001EE70F4ADFF83CE01068CEF80030089336
:1030400012F054FC089B184613F0FAF905490B6876
:103050000BE700BF140A0020A80A0020C40A0020C1
:10306000B40A00205C0A0020180A0020100A002080
:10307000080A00207C0A00201C0A002010B5074B1B
:1030800082B01C6800B200230AB2009301460623F6
:10309000204615F0D1F902B010BD00BFE4000020B9
:1030A000054B5878FF2805D0D0F1010038BF00202B
:1030B0004042704701207047C40A00202DE9F04FBC
:1030C0002DED028B4D4EDFF868814D4F4D4BDFF8F3
:1030D00064B14D4DDFF860A19FED4C8ADFF85C9143
:1030E00089B04FF0000E4FF0000C0424CDF804C05E
:1030F000CDF808C0CDF80CC060460093314642467A
:103100000494434BC7F800E0CDF81CC006F092FCD5
:103110004048CDF8008059465B46049401950395DC
:1031200002903D4A3D4F06F085FC4FF08040CDF8BF
:103130000080294642462B4601960396049402904D
:1031400006F078FCCDF800802946324602944046CD
:10315000334BCDF804A006F067FDCDF80080514652
:103160003246029440462F4B8DED018A06F05CFDFD
:10317000DDF81CC0CDF804C0CDF80CC03146334694
:103180004A46CDF808B004943846CDF8009006F0D1
:1031900051FC2548039059465B464A46DFF8A0801B
:1031A000CDF80090019502970494204806F042FC67
:1031B0004A4629462B46CDF8009001960297039681
:1031C0000494384606F036FC2B463A460097CDF874
:1031D00004A002941249404606F026FD00978DEDAA
:1031E000018A029440460F493A46534606F01CFDB8
:1031F00009B0BDEC028BBDE8F08F00BF000070424B
:103200003C3700200000A042000048430000F0428C
:1032100000006C420000A0400000204200008743F4
:103220000000344300000C430000FA4400008C43CB
:103230000000484200007043000020430000A0430B
:10324000000082432DE9F04F2DED068BCA48DFF8D0
:103250009093CA4CCA4E9FEDCBAADFEDCB9A9FED5F
:10326000CB8ADFEDCB8A9FEDCB9ACFB014F0F6F985
:103270008046002013F0E4F8C74B00251D60FFF7DF
:103280001DFFC649C6484FF07E5206F035FDDFF8F7
:103290003CC3C44B07460022826001214FF07E50A0
:1032A000B861FA60184600930291CDF80490BE49C7
:1032B000CCF80070BD4ABE4B06F03AFCDFF810E3D4
:1032C000BC4A0295CDF80490D727CEF80000B84943
:1032D0000092B948B44B06F02BFC40F2111C239726
:1032E000D727CDF8A4C02B972897CDF89CC00327EB
:1032F0004FF0E20CDFF8D0E21F97CDF898C040F213
:1033000013174FF48C7C2597CDF890C002270DF150
:10331000D80C2A951E95AA462295CEF80000219732
:1033200035ADCDF874C008F083FADFF8B8E20123B8
:103330002DA81421CEF8003012F074FD002213469F
:1033400020682EA911F030FD0128F7D0306840F236
:10335000FF7114F06BFC402198480AF0FDF8102131
:10336000209096480AF0F8F80421814693480AF024
:10337000F3F82021074691480AF0EEF8904A01211F
:10338000106090480AF0E8F88346002800F0538463
:10339000B9F1010F00F06384B9F1000F0DD1012FD5
:1033A00000F009854FB9DFF828E28749DEF80020F0
:1033B0000B6882F8697083F86970844A3068136812
:1033C00093ED076AD3ED016AD3ED007AB1EE087A86
:1033D00036EE077A7AEE666ABDEEC77AFDEEE66AE9
:1033E000FDEEE77A16EE902A17EE103A17EE901AD5
:1033F0004FF4806712B209B21BB2009715F01CF8A7
:10340000734BD6F800B0186805F0F6FA4FF4784719
:1034100000214FF0030903460A4658460197CDF8AC
:10342000009015F04DFFDFF8A0C1D6F800B0DCF831
:10343000000005F0E1FA002103460A4601975846CC
:10344000CDF8009015F03CFFDFF884E13068DEF83D
:103450000030DB6DD3ED017A93ED007A79EEE77AF7
:10346000BDEEC77AFDEEE77A17EE101A17EE902A36
:10347000002712B209B20623009714F0DDFF52496B
:1034800030680B68DB6DD3ED017A93ED007A00971D
:1034900079EEE77ABDEEC77AFDEEE77A17EE101AFD
:1034A00017EE902A062312B209B214F0C5FF474A5C
:1034B0009FED487A1368D3ED007AD3ED016AF4EEFC
:1034C000C87AF1EE10FAF4EEC76A00F17F82F1EEED
:1034D00010FA00F37C84AA2B00F27C8293ED017A2F
:1034E000DFED3D6AB4EEE67AF1EE10FA00F290827A
:1034F000DFED3A6AB4EEE67AF1EE10FAC0F28882B5
:103500001E9F01371E97F4EEC87AF1EE10FAC0F252
:103510005583AA2B00F25283D3ED017A9FED2E7AC8
:10352000F4EEC77AF1EE10FA0DD89FED2C7AF4EE96
:10353000C77AF1EE10FA06DB00273846013704F0AF
:1035400005F8282FF9D1DFF884C0DCF8003093EDBE
:10355000017AF2EE027AB4EEE77AF1EE10FA43D88D
:10356000DDF884C0219F1F970CF1FF3C00272A97AC
:10357000CDF884C038E000BFEC650208240A0020C2
:10358000E40000200000704300007443000020436A
:1035900000009642000075433C3700200000C842FE
:1035A000000034430000D2420000204200001143DA
:1035B000000070410000574300007F4300100240AC
:1035C000C80A002000000240EC0A00200C2900205C
:1035D000D80A0020000060430000334300001F436E
:1035E0000000F041700A00201F9F002F00F0498367
:1035F000219F012F40F2D183B94BBA4F1A683B6823
:10360000B94FDFF834C33F681097B84FDFF82CE3A9
:103610003F681C97B64FDEF800103F681B97B54F08
:10362000DCF800003F681A97B34F3F681997109F66
:103630000097B24F3F680F971C9F0197B04F3F68AC
:1036400018971B9F0297AF4F3F6817971A9F0397D2
:10365000AD4F3F681697199F0497AC4F3F68159779
:103660000F9F0597AA4F3F680E97189F0697A94F7F
:103670003F681497179F0797A74F3F681397169FA8
:103680000897A64F3F681297159F09970E9F0A97B4
:10369000149F0B97139F0C97129F0D9704F02AFF0E
:1036A000DFF89CE2DFF89CC2DEF80010DCF80000D6
:1036B00004F004F84FF4784B04F010F9032704F0F9
:1036C000B9F84FF0FF394FF00A0C3068CDF800C060
:1036D0004D2100223223CDF804B00297CDF80C9092
:1036E000CDF844C015F0C6FFDDF844C0CDF800C0E9
:1036F000F32100224FF487733068CDF804B00297AD
:10370000CDF80C9015F0B6FFDDF878C06FF47A7143
:103710000CEB010240F2E6339A4200F28382DFF8BA
:1037200028E20223CEF800307D4A3368CDF80080CD
:1037300092E803004FF6E07785E80300142218466C
:10374000019707212B4616F0D5FE764BDDF874C0A5
:10375000019793E803003368CDF800804FEA114EDB
:1037600028605022ACF80010184607212B468DF82F
:10377000DAE016F0BFFEDFF8D0E16B49DEF800209A
:1037800028461AF07FF83068019707215A222B4605
:10379000CDF8008016F0AEFE644A3368019792E8D7
:1037A0000300CDF800804FEA114E286078221846B9
:1037B000ADF8D8102B4607218DF8DAE016F09AFE06
:1037C00059491E9A28461AF05DF83068019707217A
:1037D00082222B46CDF8008016F08CFE544B0197C8
:1037E00093E803003368CDF800804FEA114E28605B
:1037F000A0221846ADF8D8102B4607218DF8DAE044
:1038000016F078FE48491F9A28461AF03BF83068AF
:1038100001970721AA222B46CDF8008016F06AFEF8
:10382000DFF828C1336801979CE80300414FCDF8C9
:103830000080142285E8030018464FF48C712B4653
:1038400016F058FE0FCFAE46CDF80080AEE80F0060
:1038500097E80700AEE803002EF8022B4FF00009AE
:103860004FEA124C3068CDF804905A218EF800C00F
:10387000DC222B4616F03EFE30682799289ACDF8B8
:103880000090062314F0D8FD249FDDF88CC0ADF81D
:10389000CC70F0234FF478474FF0040B4FF4917E37
:1038A000ADF8CEC0DDF894C03068019749464A466D
:1038B000ADF8D0C0ADF8C4E0DDF898C0ADF8C630C2
:1038C00040F22F1EADF8CA30CDF800B031ABADF8E4
:1038D000C8E0ADF8D2C015F00FFA019738E000BF8C
:1038E00070000020840A00204C000020900000207E
:1038F0003000002068000020180000204400002054
:103900008C000020380000206C0000201C000020EB
:1039100080000020940000203C0A00209C00002031
:10392000746702087C6702088467020888670208D7
:1039300090670208A0670208940A0020000A00208D
:1039400088000020A0000020840000209867020862
:1039500031AB3068CDF800B049464A4615F0B0FCAE
:10396000DFF8D8E39EF8013036AFFF2B1D9700F04B
:103970000E82B3EB0902534253415B42D64A534491
:1039800082FB03CAAAEBE37A0AEB4A0ACAEB030AF0
:10399000BAF1010F00F0E281229F0A2F00F08A8124
:1039A000209F002F00F07C8104F008F8DFF890E3FE
:1039B00000210B46DEF800004FF0FF3211F0F4F961
:1039C000FEF7C8FA0A2012F08DFAACE4F1EE10FA14
:1039D00000F314819FEDC17AF4EEC77AF1EE10FA8C
:1039E00007DB9FEDBF7AF4EEC77AF1EE10FA7FF6AF
:1039F00075AD9FEDBC7AF4EEC77AF1EE10FA07DBF5
:103A00009FEDB97AF4EEC77AF1EE10FA7FF666AD63
:103A1000F4EEE87AF1EE10FA17DB9FEDB47AF4EEEB
:103A2000C77AF1EE10FA10DB93ED017ADFEDB06AA0
:103A3000B4EEE67AF1EE10FA07D8DFEDAE6AB4EE36
:103A4000E67AF1EE10FABFF65BADF4EEC97AF1EE6C
:103A500010FA17DB9FEDA87AF4EEC77AF1EE10FAB0
:103A600010D893ED017ADFEDA26AB4EEE67AF1EEBA
:103A700010FA07D8DFED9F6AB4EEE67AF1EE10FA9D
:103A8000BFF63EADF4EEE87AF1EE10FA17DB9FEDEB
:103A90009B7AF4EEC77AF1EE10FA10D893ED017A22
:103AA000DFED976AB4EEE67AF1EE10FA07D8DFEDB3
:103AB000956AB4EEE67AF1EE10FABFF621ADF4EEB7
:103AC000C97AF1EE10FA17DB9FED8F7AF4EEC77A20
:103AD000F1EE10FA10D893ED017ADFED896AB4EEB9
:103AE000E67AF1EE10FA07D8DFED886AB4EEE67AEE
:103AF000F1EE10FABFF604ADF4EEE87AF1EE10FA4A
:103B000017DB9FED837AF4EEC77AF1EE10FA10DB43
:103B100093ED017ADFED756AB4EEE67AF1EE10FA14
:103B200007D8DFED7C6AB4EEE67AF1EE10FABFF664
:103B3000E7ACF4EEC97AF1EE10FA17DB9FED767A76
:103B4000F4EEC77AF1EE10FA10D893ED017ADFEDBA
:103B5000676AB4EEE67AF1EE10FA07D8DFED6D6A27
:103B6000B4EEE67AF1EE10FABFF6CAAC9FED6B7ACE
:103B7000F4EEC77AF1EE10FAFFF6C5AC9FED687A65
:103B8000F4EEC77AF1EE10FA3FF6BDAC93ED017A90
:103B9000DFED646AB4EEE67AF1EE10FA3FF6B3AC0C
:103BA000DFED616AB4EEE67AF1EE10FABFF6A8AC8A
:103BB000F4EEC87AF1EE10FABFF6ABAC9FED477A9F
:103BC000F4EEC77AF1EE10FA07DB9FED587AF4EEC7
:103BD000C77AF1EE10FA7FF69FAC9FED427AF4EED1
:103BE000C77AF1EE10FAFFF6AEAC9FED3F7AF4EE35
:103BF000C77AF1EE10FA3FF6A6AC8DE44C4B18688C
:103C000011F074FE384612F01BFCDFF838E1DEF8E4
:103C10000030D3ED007AF4EEC87AF1EE10FABFF678
:103C20005AACD7E6BCF5FA6F40F3B380DFF818E181
:103C3000CEF8007078E5DFF814C1DFF814E13D49F3
:103C4000DCF80000CEF800B002230B6011F04EFE4D
:103C5000584612F0F5FBB9F1010F7FF49DAB012F2F
:103C600000F0BF80002F7FF4A8AB334BDFF8E4C037
:103C70001A68DCF8003082F8697083F86990FFF701
:103C80009CBBDFF8C8C0DFF8C8E0DCF80000012307
:103C9000CEF8003011F02AFE1F9812F0D1FBABE4F1
:103CA000DFF8B4C0DCF8000011F020FE209812F01C
:103CB000C7FB79E6DDF8ACC0299FACF1020C023FEE
:103CC000CDF8ACC029970FFA87FC2B9FCDF89CC08C
:103CD0003FB2289764E600BF565555550000F042A4
:103CE00000000243000048430000524300000B4321
:103CF00000003D4300001A4300005C430000BE4248
:103D0000000080420000304200006B430000584237
:103D1000000012430000BC42000063430000A042C8
:103D20000000B44200006C420000444200002A43FC
:103D3000A80A0020440A0020D80A0020C40A002053
:103D4000540A00200C29002084000020BC0A002016
:103D5000680A0020EC0A0020040A0020229F092F94
:103D60003FF71AAE0137DDF890C02297239F0CF180
:103D7000020C0237CDF890C02397DDF894C0269F3F
:103D80000CF1020C0237CDF894C0269704E601230B
:103D9000F4E51A4901230B60C6E42A9F002F7FF443
:103DA0002BAC174A17491A600127002259609A6004
:103DB000DA602A9720E4DFF854E01349DEF80020A7
:103DC0000B6882F8699083F86970FFF7F6BADFF83C
:103DD00040C0DCF8000011F089FD384612F030FBDD
:103DE00013E7094BDFF824C01A68DCF8003082F8CA
:103DF000697083F86970FFF7E0BA00BF84000020A3
:103E000000002A430000C842D80A0020EC0A002023
:103E1000140A00202DE9F04F2DED068BA648ADF5D4
:103E2000037D13F01BFCA5498246012400200C6091
:103E300012F006FBA24B1F68002F40F0A985A14B92
:103E4000A1483E901F60FFF739F9A04B3F93A04B6C
:103E50004193A04B5F93A04B4793A04B5593A04B2E
:103E60006193A04B6393A04B6293A04B5693A04BDE
:103E70005793A04B5893A04B5993A04B5A93A04BE8
:103E80004893A04B4993A04B4A93A04B4B93A04B14
:103E90004C93A04B4D93A04B4E93A04B4F93A04BF4
:103EA0005093A04B5193A04B5293A04B5393A04BD4
:103EB0005493A04B5B93A04B5C93A04B4693A04BB9
:103EC0004493A04B4593A04B4093A04BA0494293F1
:103ED0004FF07E529F4BA0485E9305F00DFF0022ED
:103EE0004FF07E5182608161C2609C4B02943E9C87
:103EF000DFF8AC8200938646CDF804801846C4F8FB
:103F000000E09749974A984B984D994E9FED99AA92
:103F1000DFED999A9FED998ADFED998A9FED999A45
:103F200005F006FE3F9C984ACDF8048002978E4922
:103F300020608B4B0092954805F0FAFD419C6097FC
:103F4000206003243B9465AC5D944FF0020E66AC98
:103F50006AA80DF5D5713A97CDF8F0E00DF5D27954
:103F600043903D910E9407F063FC5F9C5D980123A4
:103F70001421236011F056FF0E9C0022134628687E
:103F8000214610F011FF0128F7D030680E944FF44D
:103F9000FC6113F04BFE40217D4809F0DDFA479C9F
:103FA000102120607A4809F0D7FADFF8F8E10421FF
:103FB000CEF80000764809F0CFFA764A202110604A
:103FC000734809F0C9FA744B01211860734809F06D
:103FD000C3FA559C80462060002800F08584DFF8F5
:103FE000C4E1DEF80030012B00F092847BB9DFF8E9
:103FF000A4E1DEF80020012A00F0AE843AB93F9C2B
:104000002168419C236881F8692083F869203E9CDF
:10401000306823682C4C93ED076AD3ED016AD3ED29
:10402000007AB1EE087A36EE077A7AEE666ABDEE6D
:10403000C77AFDEEE66AFDEEE77A16EE902A17EEF5
:10404000103A17EE901A4FF4806E1BB209B212B2FA
:10405000CDF800E014F0F0F9DDF8FCE03268DEF8AD
:1040600000000F9204F0C8FC0F9A4FF4784800212A
:104070004FF0030B0346CDF804801046CDF800B096
:104080000A4615F01DF94199326808680F9204F04C
:10409000B3FC0F9ACDF8048000210346CDF800B0A0
:1040A00010460A4615F00CF9419A30681368DB6D2A
:1040B000D3ED017A7EE000BFEC65020884000020A9
:1040C0007C0A00203C3700200C290020D80A002060
:1040D000EC0A0020700A0020C00A0020CC0A002050
:1040E000680A0020440A0020BC0A0020940A00202C
:1040F000000A002070000020840A00204C000020EC
:1041000090000020300000206800002018000020EF
:10411000440000208C000020380000206C000020AB
:104120001C00002080000020940000203C0A002099
:104130009C000020A0000020880000209867020852
:104140007C6702088867020890670208BC6702085B
:104150000000C842540A0020000034430000D2424C
:10416000000020420000114300007041240A00209A
:10417000E40000200000704300007443000020436E
:1041800000009642000075430000574300007F4343
:1041900000100240980A0020C80A002000000240D7
:1041A0000000F041380A002000006543000033435E
:1041B00000001F4393ED007A79EEE77ABDEEC77AEF
:1041C000FDEEE77A17EE101A17EE902A4FF000086E
:1041D00012B209B20623CDF8008014F02DF9DDF8F3
:1041E000FCE03068DEF80030DB6DD3ED017A93ED52
:1041F000007ACDF8008079EEE77ABDEEC77AFDEE61
:10420000E77A17EE101A17EE902A062309B212B2B7
:1042100014F012F93E980368D3ED007AF4EEC87AF0
:10422000F1EE10FA09D51FED207AD3ED016AF4EE14
:10423000C76AF1EE10FA00F33782F4EEC87AF1EEB5
:1042400010FA40F33B821FED287AD3ED016AF4EEB9
:10425000C76AF1EE10FA00F38983AA2B00F23482C8
:1042600093ED017A5FED2F6AB4EEE67AF1EE10FA83
:1042700000F248825FED326AB4EEE67AF1EE10FAAF
:10428000C0F240823A9C01343A94F4EEC87AF1EEDE
:1042900010FAC0F2D881AA2B00F2D581D3ED017AB1
:1042A0001FED3E7AF4EEC77AF1EE10FA00F2E981E2
:1042B0001FED417AF4EEC77AF1EE10FAC0F2E18117
:1042C0000E9C00273846013703F040F9282FF9D11A
:1042D0000E944FF0290B3E9C236893ED017AF2EE89
:1042E000027AB4EEE77AF1EE10FA06D83C9C3B94E1
:1042F000002460943C9C013C3C943B9C002C00F0CE
:10430000E8823C9C012C40F219835A9B569C1B6806
:104310003993489B20681B683893499B579C1B68BE
:1043200037934A9BDDF864E11B6836934B9B216809
:104330001B68589C3593399B2268DEF80040009337
:104340004C9B1B683493389B01934D9B1B683393A4
:10435000379B02934E9B1B683293369B03934F9B74
:104360001B683193359B0493509B1B683093349B9F
:104370000593519B1B682F93339B0693529B1B689D
:104380002E93329B0793539B1B682D93319B08936D
:10439000549B1B682C93309B099323462F9C0A94B3
:1043A0002E9C0B942D9C0C942C9C0D9403F022FEBF
:1043B0005B9C20685C9C216803F080F903F08EFA16
:1043C0001F234FF6FF78306800935521B9220A2346
:1043D00014F032F83068CDF800805521B922052359
:1043E00014F02AF848F27D63306800935521B92211
:1043F000022314F021F84FF4044330680093EB21BA
:10440000B9220A2314F018F83068CDF80080EB21A7
:10441000B922052314F010F84FF48063306800933C
:10442000EB21B922022314F007F84FF478444FF03F
:104430000A0C4FF003084FF0FF313068CDF800C090
:104440000194039100224D213223CDF80880CDF84C
:104450003CC015F00FF9DDF83CC001944FF0FF327D
:1044600003924FF4877300223068CDF800C0CDF876
:104470000880F32115F0FEF83A9C6FF47A73E21885
:1044800040F2E6339A4200F20E82DFF810E2022395
:10449000CEF80030469C3368CDF800A094E80300C5
:1044A0004FF6FF7889E803001422184607214B468F
:1044B000CDF8048016F01EF8449CCDF8048094E8F2
:1044C0000300439CCDF800A03368C9F800002180A8
:1044D0003D9C4FEA114E184684F800E04B460721F8
:1044E000502216F007F8DFF8B4E16749DEF8002043
:1044F000484619F0C7F93068CDF8048007215A22E0
:104500004B46CDF800A015F0F5FF459C3368CDF87B
:10451000048094E803003D9CCDF800A04FEA114EC2
:10452000C9F800007822ADF8A811184684F800E018
:104530004B46072115F0DEFF53493A9A484619F0D9
:10454000A1F93068CDF80480072182224B46CDF8CE
:1045500000A015F0CFFF409C3368CDF8048094E8AC
:1045600003003D9CCDF800A04FEA114EC9F80000B1
:10457000A022ADF8A811184684F800E04B460721A8
:1045800015F0B8FF40493B9A484619F07BF930686E
:10459000CDF804800721AA224B46CDF800A015F0E3
:1045A000A9FF429C3368CDF8048094E80300CDF85D
:1045B00000A0142289E8030018464FF48C714B4682
:1045C00015F098FFDFF8D8C0CDF800A0BCE80F00C8
:1045D000CE46AEE80F009CE80700AEE803002EF8D8
:1045E000022B4FEA124C4FF47843019330688EF857
:1045F00000C04B465A21DC2215F07CFFDFF8A4E016
:10460000DEF800306AAC4394002B00F05E81479CDA
:10461000D4F80080BBF1290F14BF5F460027B8F122
:10462000000F00F0488103F0C9F95E9C00210B46A1
:104630004FF0FF32206810F0B7FBFDF78BFC0A202B
:1046400011F050FC8FE49FED117AF4EEC77AF1EE91
:1046500010FA07DB9FED0E7AF4EEC77AF1EE10FA4E
:104660007FF61CAE9FED0B7AF4EEC77AF1EE10FAEE
:1046700007DB9FED097AF4EEC77AF1EE10FA7FF6C8
:104680000DAE07F1010B26E6846702080000F04238
:1046900000002A43000048430000524384000020E9
:1046A000A0670208C80A0020BE49086811F01EF978
:1046B000404611F0C5FE2368D3ED007AF4EEC87AC7
:1046C000F1EE10FABFF6C9AD9FEDB77AF4EEC77AF6
:1046D000F1EE10FA07DB9FEDB57AF4EEC77AF1EE52
:1046E00010FA7FF6BDAD9FEDB27AF4EEC77AF1EE27
:1046F00010FA07DB9FEDAF7AF4EEC77AF1EE10FA0D
:104700007FF6AEADF4EEE87AF1EE10FA17DB9FED2E
:10471000AA7AF4EEC77AF1EE10FA10DB93ED017A83
:10472000DFEDA66AB4EEE67AF1EE10FA07D8DFED17
:10473000A46AB4EEE67AF1EE10FABFF6A3ADF4EE99
:10474000C97AF1EE10FA17DB9FED9E7AF4EEC77A84
:10475000F1EE10FA10D893ED017ADFED986AB4EE1D
:10476000E67AF1EE10FA07D8DFED956AB4EEE67A54
:10477000F1EE10FABFF686ADF4EEE87AF1EE10FA3B
:1047800017DB9FED917AF4EEC77AF1EE10FA10D8AC
:1047900093ED017ADFED8D6AB4EEE67AF1EE10FA70
:1047A00007D8DFED8B6AB4EEE67AF1EE10FABFF6C9
:1047B00069ADF4EEC97AF1EE10FA17DB9FED857A58
:1047C000F4EEC77AF1EE10FA10D893ED017ADFED2E
:1047D0007F6AB4EEE67AF1EE10FA07D8DFED7E6A72
:1047E000B4EEE67AF1EE10FABFF64CADF4EEE87AEC
:1047F000F1EE10FA17DB9FED797AF4EEC77AF1EE5D
:1048000010FA10DB93ED017ADFED6B6AB4EEE67A15
:10481000F1EE10FA07D8DFED726AB4EEE67AF1EE47
:1048200010FABFF62FADF4EEC97AF1EE10FA17DBED
:104830009FED6C7AF4EEC77AF1EE10FA10D893ED92
:10484000017ADFED5D6AB4EEE67AF1EE10FA07D890
:10485000DFED636AB4EEE67AF1EE10FABFF612AD60
:104860009FED617AF4EEC77AF1EE10FAFFF60DAD26
:104870009FED5E7AF4EEC77AF1EE10FA3FF605ADE1
:1048800093ED017ADFED5A6AB4EEE67AF1EE10FAB2
:104890003FF6FBACDFED576AB4EEE67AF1EE10FAC4
:1048A000FFF6F3ACEEE4B4F5FA6F43DDDFF84CE16C
:1048B000CEF80080EEE5DFF854E1DEF8000011F0FC
:1048C00015F8404611F0BCFDADE6384602F03EFE5C
:1048D0009DE6629C2068619C0123236011F006F82C
:1048E0003B9811F0ADFD10E5629C2068619CC4F816
:1048F0000080639C0323236010F0F8FF404611F012
:104900009FFDDFF80CE1DEF80030012B7FF46EAB89
:1049100039480268012A3FF472AB002A7FF477AB72
:104920003F9C2068419C80F86920216881F86930AB
:10493000FFF76DBB314801230360ABE5609C002CA1
:104940007FF4E3AC2E4A2F491A60012400225960FB
:104950009A60DA606094D8E4419C20683F9C80F8BB
:104960006930216881F86920FFF751BB264A106839
:1049700010F0BCFF002011F063FD3E9C2368D3EDD6
:10498000007AF4EEC87AF1EE10FAFFF69DAE64E418
:10499000012F3FD000200DF5037DBDEC068BBDE857
:1049A000F08F00BF140A00200000F0420000024314
:1049B000000048430000524300000B4300003D4309
:1049C00000001A4300005C430000BE420000804229
:1049D0000000304200006B430000584200001243C8
:1049E0000000BC42000063430000A0420000B4424B
:1049F00000006C4200004442980A0020840000201D
:104A000000002A430000C842080A0020040A0020CF
:104A1000380A0020554C3F94554C4194554C5F94B6
:104A2000554C4794554C5594554C6194554C639452
:104A3000554C6294554C3E94554C5694554C579455
:104A4000554C5894554C5994554C5A94554C48943F
:104A5000554C4994554C4A94554C4B94554C4C9458
:104A6000554C4D94554C4E94554C4F94554C509438
:104A7000554C5194554C5294554C5394554C549418
:104A8000554C5B94554C5C94554C4694554C449411
:104A9000554C4594554C4094554C42945548564C71
:104AA0005E9412F0DBFD8246002011F0C9FC534CED
:104AB000534D544E9FED548AFEF700FB5348029726
:104AC00001945349534A544B009005F031F8019436
:104AD0003F9C524A206000230293009250484E4966
:104AE0004B4B05F025F865AC5D94419C0DF5D47EEB
:104AF000206066AC0DF5D5700DF5D279CDF80CE1DE
:104B00003D9057463A9406F093FE5F9C5D980123D2
:104B10001421236011F086F93A9C0022134628687C
:104B2000214610F041F90128F7D030683A9440F25C
:104B3000FF7113F07BF810213A4808F00DFD0421B5
:104B4000384808F009FD01218346374808F004FD84
:104B5000559C40212060334808F0FEFC2368479CA8
:104B60002060002B00F0148360E000BFD80A002012
:104B7000EC0A0020700A0020C00A0020CC0A0020A5
:104B8000680A0020440A0020BC0A00200C290020EA
:104B9000940A0020000A002070000020840A0020EF
:104BA0004C00002090000020300000206800002011
:104BB00018000020440000208C0000203800002055
:104BC0006C0000201C0000208000002094000020C9
:104BD0003C0A00209C000020A0000020880000204B
:104BE000986702087C6702088867020890670208D5
:104BF000BC670208EC650208540A00200000F0417E
:104C0000240A0020E4000020000074430000D24287
:104C10000000204200001143000070410000574393
:104C200000007F4300100240000002405A9B569C47
:104C30001B682B93489B20681B682A93499B579CB1
:104C40001B6829934A9BDDF864E11B6828934B9B02
:104C500021681B68589C27932B9B2268DEF8004034
:104C600000934C9B1B6826932A9B01934D9B1B68CA
:104C70002593299B02934E9B1B682493289B0393A7
:104C80004F9B1B682393279B0493509B1B68229385
:104C9000269B0593519B1B682193259B0693529B52
:104CA0001B682093249B0793539B1B681F93239B94
:104CB0000893549B1B681E93229B09932346219CB7
:104CC0000A94209C0B941F9C0C941E9C0D9402F043
:104CD00011FF569C2068579C2168589C2268599C5B
:104CE00023685A9C24681D94489C24681C94499C01
:104CF00024681B944A9C24681A944B9C2468199439
:104D00001D9C00944C9C246818941C9C01944D9C00
:104D1000246817941B9C02944E9C246816941A9C39
:104D200003944F9C24681594199C0494509C246807
:104D30001494189C0594519C24681394179C069411
:104D4000529C24681294169C0794539C24681194D6
:104D5000159C0894549C24681094149C0994139CEA
:104D60000A94129C0B94119C0C94109C0D9403F0CB
:104D700041F95B9C20685C9C216802F09FFC02F07A
:104D8000ADFD02F01BFE1F234FF6FF783068009345
:104D90005521B9220A2313F04FFB3068CDF800806B
:104DA0005521B922052313F047FB48F27D63306893
:104DB00000935521B922022313F03EFB4FF4044324
:104DC00030680093EB21B9220A2313F035FB3068D9
:104DD000CDF80080EB21B922052313F02DFB4FF411
:104DE000806330680093EB21B922022313F024FB87
:104DF0004FF478444FF00A0C4FF003084FF0FF3A9D
:104E00003068CDF800C00194CDF80CA04D210022EF
:104E10003223CDF80880CDF83CC014F02BFCDDF82F
:104E20003CC0CDF800C030680194CDF80CA0F3214F
:104E300000224FF48773CDF8088014F01BFCDFF8D4
:104E400048E33368CD4C00979EE803004FF6E07AC4
:104E50004FF0010E89E8030014221846CDF804A093
:104E60000721C4F800E04B4615F044FB449C33682E
:104E700094E80300439C8DE88004C9F80000218079
:104E80003D9C4FEA114E184684F800E04B4607213E
:104E9000502215F02FFBDFF8E4E2B949DEF80020DC
:104EA000484618F0EFFC306807215A224B468DE83F
:104EB000800415F01FFB459C336894E803003D9C7B
:104EC0004FEA114E8DE880047822C9F80000ADF851
:104ED000A811184684F800E04B46072115F00AFB9C
:104EE000A7490022484618F0CDFC306807218222ED
:104EF0004B468DE8800415F0FDFA409C336894E839
:104F000003003D9C4FEA114E8DE88004A022C9F8B1
:104F10000000ADF8A811184684F800E04B460721C0
:104F200015F0E8FA42469649484618F0ABFC30685E
:104F30000721AA224B468DE8800415F0DBFA429C3B
:104F4000336894E803008DE880046AAC89E80300C4
:104F5000142218464FF48C714B46439415F0CAFA4C
:104F60003A9C00221346286821460FF01DFF0128B5
:104F7000F7D0BBF1010F3A9402D0BBF1000F03D17F
:104F80003F9C236883F869B0AA20FCF7A3FF0020A8
:104F9000FCF7A0FF0020FCF79DFF5846FCF79AFFA6
:104FA0000020FCF797FF0020FCF794FF0020FCF79F
:104FB00091FF0020FCF78EFF0020FCF78BFF002004
:104FC000FCF788FF0020FCF785FF0020FCF782FF3C
:104FD0000020FCF77FFF5846FCF77CFF5520FCF7CC
:104FE00079FF3E9C9DF89EE123689DF89C1193ED0E
:104FF000077A9DF89D213068624CF1EE087A77EED1
:10500000277A4FF0640CFDEEE77A1CFB01E117EE06
:10501000903A4FF4806E1BB209B2CDF800E013F065
:105020000BFADDF8FCE0D6F80080DEF8000003F0B3
:10503000E3FC4FF0030B00214FF4784A03460A4685
:105040004046CDF800B0CDF804A014F039F93F98EF
:1050500003683068DB6DD3ED017A93ED007A78EE6A
:10506000677ABDEEC77AFDEEE77A17EE101A17EEF3
:10507000902A4FF0000812B209B2CDF80080062342
:1050800013F0DAF99DF898C1BCF1000F00F08F80A1
:10509000BCF1010F00F0BD804FF6FF789DF8A12113
:1050A0003749484618F0EEFB4B4630680097CDF87C
:1050B00004800721822215F01DFA4FF6E07A9DF850
:1050C000A3212F49484618F0DDFB306800974B4676
:1050D000CDF804A007215A2215F00CFA409C336841
:1050E00094E803003D9C4FEA114E8DE88001A02218
:1050F000C9F80000ADF8A811184684F800E04B4646
:10510000072115F0F7F99DF8A2211D49484618F02E
:10511000B9FB30684B468DE880010721AA2215F0C3
:10512000E9F9469C336894E803008DE88004142272
:1051300089E8030018464FF48C714B4615F0DAF9F4
:10514000DFF848C05E9CBCE80F00CE46AEE80F001A
:105150009CE80700AEE803002EF8022B0021120C99
:105160008EF800200B464FF0FF3220680FF01CFE37
:10517000FCF7F0FE0A2010F0B5FEC4E48400002025
:1051800084670208E400002074670208A067020830
:10519000629C2068619C2360639C012222600F93C3
:1051A00010F0A4FB0F9B184611F04AF93EE5419917
:1051B000D4F80080086880F869C0CDF83CC003F0DE
:1051C0001BFCDDF83CC0CDF800B00346624640460B
:1051D0006146CDF804A014F073F8419ADDF83CC0A4
:1051E00013682068DB6DD3ED017A93ED007ACDF87A
:1051F00000C078EE677ABDEEC77AFDEEE77A17EE6B
:10520000101A17EE902A09B212B2062313F014F9FD
:1052100042E7419B2268186880F869C00F9203F04A
:10522000EBFB0F9ACDF800B00346CDF804A0104672
:105230004146424614F044F8DDF804E12068DEF807
:105240000030DB6DD3ED017A93ED007ACDF800806C
:10525000CFE700BF2DE9F04F2DED068BAD48F7B03D
:1052600012F0FCF98146002011F0EAF8AA4B1C6804
:10527000002C40F0D385A94BA94F3097A94F1C6053
:10528000FDF71CFF3297A84F3497A84F3E97A84FC1
:105290003B97A84F3C97A84F5697A84F5797A84FB2
:1052A0005597A84F3F97A84F4097A84F4197A84FB1
:1052B0004297A84F4397A84F4497A84F4597A84FA8
:1052C0004697A84F4797A84F4897A84F4997A84F88
:1052D0004A97A84F4B97A84F4C97A84F4D97A84F68
:1052E0004E97A84F4F97A84F5097A84F5197A84F48
:1052F0005297A84F3797A84F3697A84F3997A84F7E
:105300003A97A84F3397A84F3897A849A84FA9486C
:1053100053974FF07E5204F0EFFCDDF8C0C0A64B6F
:10532000DFF8D882A54DA64E9FEDA69ADFEDA68A9E
:105330009FEDA68ADFEDA69A9FEDA6AA074600225A
:10534000826001214FF07E50B861FA6018460093E8
:105350000291CDF80480A049CCF800709F4AA04B80
:1053600004F0E6FB329F9F4A0294CDF804809C49EA
:105370003860994B00929C4804F0DAFBDDF8D0C00D
:105380005494CCF800000DF5B27CCDF8F4C04FF089
:10539000020C2D942746CDF8C4C003240DF5BC7C27
:1053A0002E94CDF8D4C05AAC0DF5BD7C0DF5BA7A6B
:1053B000CDF8BCC0CB46129406F03AFA3E9C3D981C
:1053C00001231421236010F02DFD129C00221346AE
:1053D000286821460FF0E8FC0128F7D030681294C5
:1053E0004FF6E07112F022FC4021804808F0B4F83A
:1053F000DDF8ECC01021CCF800007C4808F0ACF8D7
:10540000DFF8FCE10421CEF80000784808F0A4F8A9
:10541000774A20211060754808F09EF8754B0121ED
:105420001860754808F098F83C9C80462060002879
:1054300000F09684DFF8C8E1DEF80030012B00F0C0
:10544000A7848BB9DFF8A8E1DEF80020012A00F07C
:10545000C7844AB9329CDDF8D0C02168DCF800303E
:1054600081F8692083F86920309C306823682C4CCF
:1054700093ED076AD3ED016AD3ED007AB1EE087AB5
:1054800036EE077A79EE666ABDEEC77AFDEEE66A19
:10549000FDEEE77A16EE902A17EE103A17EE901A04
:1054A0004FF4806ECDF800E01BB209B212B212F0D8
:1054B000C3FFDDF8C8C03268DCF80000139203F0C7
:1054C0009BFA139A00214FF478484FF003090346E2
:1054D000CDF804801046CDF800900A4613F0F0FE97
:1054E000DDF8D0C03268DCF80000139203F084FAD3
:1054F000139ACDF8048000210346CDF800901046A1
:105500000A4613F0DDFEDDF8C8C03068DCF8003074
:105510007EE000BFEC6502087C0A00203C370020DA
:105520000C290020D80A0020EC0A0020700A002074
:10553000C00A0020CC0A0020680A0020440A00208B
:10554000BC0A0020940A0020000A002070000020FD
:10555000840A00204C000020900000203000002031
:105560006800002018000020440000208C0000206B
:10557000380000206C0000201C000020800000206B
:10558000940000203C0A00209C000020A000002085
:105590008800002084000020BC6702087C670208A5
:1055A0008867020890670208746702080000C84212
:1055B000540A0020000034430000D242240A002094
:1055C000E40000200000704300007443000020430A
:1055D0000000964200007543000020420000114385
:1055E000000070410000574300007F43001002405C
:1055F000980A0020C80A0020000002400000F04184
:10560000380A0020000065430000334300001F43B8
:10561000DB6DD3ED017A93ED007A78EEE77ABDEE9B
:10562000C77AFDEEE77A17EE101A17EE902A4FF0C0
:10563000000812B209B20623CDF8008012F0FCFE79
:10564000DDF8D0C03068DCF80030DB6DD3ED017AD6
:1056500093ED007ACDF8008078EEE77ABDEEC77A58
:10566000FDEEE77A17EE101A17EE902A062309B21C
:1056700012B212F0E1FEDDF8C0C0DCF80030D3ED6C
:10568000007AF4EEC87AF1EE10FA09D51FED237A0C
:10569000D3ED016AF4EEC76AF1EE10FA00F3168258
:1056A000F4EEC87AF1EE10FA40F31C821FED2B7A6B
:1056B000D3ED016AF4EEC76AF1EE10FA00F39C83B1
:1056C000AA2B00F2158293ED017A5FED316AB4EEF8
:1056D000E67AF1EE10FA00F229825FED346AB4EE58
:1056E000E67AF1EE10FAC0F22182DDF8B4C00CF1D6
:1056F000010CCDF8B4C0F4EEC87AF1EE10FAC0F2A5
:10570000ED82AA2B00F2EA82D3ED017A1FED427AF4
:10571000F4EEC77AF1EE10FA0FD81FED447AF4EEEA
:10572000C77AF1EE10FA08DB129C002738460137E1
:1057300001F00CFF282FF9D11294309C236893EDCF
:10574000017AF2EE027AB4EEE77AF1EE10FA09D8B5
:10575000DDF8C4C0319C2E940CF1FF3C002454941D
:10576000CDF8C4C02E9C002C00F0ED82319C012CA1
:1057700040F22883439BDDF8FCC01B682C93449BBC
:10578000DCF800001B682B93459BDDF804C11B6807
:105790002A93469BDCF800201B682993479BDDF881
:1057A00008C11B68409C28932C9B2168DCF80040B2
:1057B0000093489B1B6827932B9B0193499B1B6875
:1057C00026932A9B02934A9B1B682593299B03934C
:1057D0004B9B1B682493289B04934C9B1B6823932F
:1057E000279B05934D9B1B682293269B06934E9BFC
:1057F0001B682193259B07934F9B1B682093249B39
:105800000893509B1B681F93239B09932346229C5C
:105810000A94219C0B94209C0C941F9C0D9402F0E4
:1058200069F9DDF844C1529CDCF80000216801F000
:1058300045FF02F053F81F234FF6FF7830680093BE
:105840005521B9220A2312F0F7FD3068CDF8008007
:105850005521B922052312F0EFFD48F27D6330682F
:1058600000935521B922022312F0E6FD4FF40443C0
:1058700030680093EB21B9220A2312F0DDFD306875
:10588000CDF80080EB21B922052312F0D5FD4FF4AD
:10589000806330680093EB21B922022312F0CCFD23
:1058A0004FF478444FF00A0C4FF003084FF0FF39E3
:1058B0003068CDF800C04D21002232230194CDF88C
:1058C0000880CDF80C90CDF84CC013F0D3FEDDF875
:1058D0004CC0CDF800C000224FF4877330680194AB
:1058E000CDF80880CDF80C90F32113F0C3FEDDF85D
:1058F000B4C06FF47A730CEB030240F2E6339A42C1
:1059000000F20C82379C02232360369C3368CDF86A
:1059100000B094E803004FF000088AE80300142266
:10592000184607215346CDF8048014F0E3FD399C56
:105930003368DDF8D4C0CDF8048094E803002F9CD0
:10594000CDF800B04FEA114ECAF800005022ACF872
:105950000010184684F800E05346072114F0CAFDF1
:10596000DDF8DCC05649DCF80020504617F08AFF0D
:105970003068CDF8048007215A225346CDF800B094
:1059800014F0B8FD3A9CDDF8BCC03368CDF8048053
:1059900094E803004FEA114ECDF800B07822CAF81F
:1059A0000000ADF8781118468CF800E05346072146
:1059B00014F0A0FD42492D9A504617F063FF30685D
:1059C000CDF80480072182225346CDF800B014F0B0
:1059D00091FD339CDDF8BCC03368CDF800B094E88D
:1059E00003004FF6FF794FEA114ECAF80000A022DB
:1059F000ADF878111846CDF8049053468CF800E0C5
:105A0000072114F077FD2E492E9A504617F03AFFE1
:105A10003068CDF804900721AA225346CDF800B093
:105A200014F068FD389C3368CDF8048094E80300D6
:105A3000CDF800B014228AE8030018464FF48C71A8
:105A4000534614F057FDDFF87CC0CDF80480BCE865
:105A50000F00D646AEE80F009CE80700AEE8030052
:105A60002EF8022B4FEA124CCDF800B053468EF8B8
:105A700000C030685A21DC2214F03CFDDFF848C039
:105A8000DCF800305EAC3594002B00F05881DDF876
:105A9000ECC0DCF80080B8F1000F00F0468101F0A6
:105AA0008DFF539C00210B464FF0FF3220680FF012
:105AB0007BF9FCF74FFA0A2010F014FA7CE400BFDF
:105AC00084670208A0670208C80A0020DFF8B0E374
:105AD000DEF800000FF00AFF404610F0B1FC23682A
